:020000040800F2
:1000000000040020630200087102000899580008EB
:10001000750200087702000879020008000000005D
:100020000000000000000000000000007B0200084B
:100030007D02000800000000F702000899CC0008CB
:100040000DE600088302000883020008C1AA000828
:10005000830200088302000883020008830200086C
:10006000A5530008D953000809540008830200086A
:10007000830200088302000883020008830200084C
:100080008302000883020008830200088DDD000857
:1000900041DE000883020008830200086D54000856
:1000A000830200088302000883020008830200081C
:1000B000BDCC0008E1CC000811CD00088302000887
:1000C00083020008830200088302000883020008FC
:1000D0008302000801DD0008830200088302000893
:1000E00083020008830200088302000883020008DC
:1000F00083020008830200088302000883020008CC
:10010000830200088302000889CE000883020008E9
:10011000830200088302000819CF00088302000848
:10012000830200088302000883020008830200089B
:1001300000F002F800F07EF80AA090E8000C82447B
:100140008344AAF10107DA4501D100F073F8AFF258
:10015000090EBAE80F0013F0010F18BFFB1A43F0A5
:1001600001031847DC270400FC2704000A444FF071
:10017000000C10F8013B13F0070408BF10F8014B06
:100180001D1108BF10F8015B641E05D010F8016B4B
:10019000641E01F8016BF9D113F0080F1EBF10F8AF
:1001A000014BAD1C0C1B09D16D1E58BF01F801CBD2
:1001B000FAD505E014F8016B01F8016B6D1EF9D555
:1001C0009142D6D37047000000230024002500266A
:1001D000103A28BF78C1FBD8520728BF30C148BFAA
:1001E0000B60704765292DF07686642901F02E8713
:1001F000752901F02B87782901F06487632902F0C3
:10020000A084732902F0A584002070471FB52DF04B
:10021000D6FD02F037FD0400002000212CF040FC48
:10022000401C6060002000212CF024FCE0601FBD19
:1002300010B510BD02F056FE1146FFF7E7FF1CF0A7
:1002400051FD03F0D1F803B4FFF7F2FF03BC0EF049
:1002500051FF000030BF72B662B680F30888704765
:1002600070470B4880470B4981F308880A480047CC
:10027000FEE7FEE7FEE7FEE7FEE7FEE7FEE7FEE756
:10028000FEE7FEE705480649044A064B70470000B2
:1002900061020008D8EF002031010008D8DF0020FB
:1002A000D8EF0020D8DF0020EFF3108072B670473F
:1002B00080F310887047204C204D25604FF00004DB
:1002C00084F309881E4C4FF0010525701D4C4FF03A
:1002D0008055256062B6FEE730B41A4C4FF0805569
:1002E000256030BC704730B4164C4FF08055256007
:1002F00030BC704700BF72B6EFF3098028B12038D8
:1003000080E8F00F10490968086000B50F48804781
:100310005DF804EB0E480F490A7802700A480E494E
:100320000A680260106890E8F00F203080F30988B6
:100330004EF0040E62B6704720ED00E00000FFFFB3
:10034000EF05002004ED00E008060020BD9800083D
:10035000EC050020ED0500201006002010B5FF4838
:1003600000680FF051F8FE4800680FF04DF8FD48A6
:1003700000680FF049F8FC4800680FF045F8FB48AA
:1003800000680FF041F8FA4800680FF03DF8F948AE
:1003900000680FF039F810BD10B500244FF400705C
:1003A0000FF036F8ED4908600846006800B90124EE
:1003B0004FF400700FF02CF8E94908600846006817
:1003C00000B901244FF400700FF022F8E5490860ED
:1003D0000846006800B90124A0200FF019F8E2498E
:1003E00008600846006800B9012440200FF010F8AA
:1003F000DE4908600846006800B9012440200FF07B
:1004000007F8DB4908600846006800B901244FF48A
:10041000F8700EF0FDFFD74908600846006800B983
:1004200001240CB1FFF79AFF204610BD2DE9F047DB
:1004300004460D461646701B00EBD07105EB6109B2
:1004400054F8397004EBC90148682DF02BFB804645
:1004500054F8350044F8390004EBC500406804EB5B
:10046000C9014860A94605F1010A1DE054F83A00A7
:1004700039462DF0A9FB15D854F83A0044F8390054
:1004800004EBCA00406804EBC901486009F10109A6
:1004900054F8390044F83A0004EBC900406804EB12
:1004A000CA0148600AF1010AB245DFDDA9EB050087
:1004B000012805DDA9F1010229462046FFF7B6FF14
:1004C000A6EB0900012805DD324609F101012046AD
:1004D000FFF7ACFF44F8397040462DF049FB04EBC0
:1004E000C9014860BDE8F0872DE9F84F04460D4684
:1004F00016461F464FF0000828E04FF0000920E0A4
:100500004FF0000BDA4612E00B9A0AFB029255F804
:1005100022100A9A08FB02A254F822002DF088FB50
:10052000594600902DF054F983460AF1010A0A98C1
:100530008245E9DB0B9808FB009046F820B009F1F2
:1005400001090B988145DBDB08F10108B845D4DBD4
:10055000BDE8F88F024612B909B900207047002A99
:1005600002DD09B90020F9E7002903DD8A4201DD37
:100570000120F3E7002A03DD914201D10220EDE7DB
:10058000002A03DD8A4201DA0320E7E71AB90029CD
:1005900001DD0420E2E7002A08DA101E01DB034631
:1005A00000E043428B4201DA0520D7E7002A08DA4F
:1005B000101E01DB034600E043428B4201D10620BE
:1005C000CCE7002A0ADA101E01DB034600E04342B2
:1005D0008B4203DD002901DD0720BFE719B9002A9E
:1005E00001DA0820BAE7002903DA914201DD092087
:1005F000B4E7002A03DA914201D10A20AEE7002ACB
:1006000003DA914201DA0B20A8E71AB9002901DACE
:100610000C20A3E700290ADA081E01DB034600E0EC
:100620004342934203DD002A01DD0D2096E70029B5
:1006300008DA081E01DB034600E04342934201D181
:100640000E208BE7002908DA081E01DB034600E0D4
:100650004342934201DA0F2080E700207EE730B565
:10066000034601B10AB9002030BD412901D0412A19
:1006700001D10020F8E7491E521E03EBC20000EB37
:10068000E100047801F007050120A840044201D0F0
:100690000120E9E70020E7E72DE9FE4F04460D467B
:1006A00016461F4600200190781C82000021324827
:1006B0000EF0B2FE781C8200002130480EF0ACFE35
:1006C0004FF0000819E04FF0000912E004EBC800F9
:1006D00000EBE900017809F0070201209040014297
:1006E00005D04FF07E5101982DF072F8019009F17C
:1006F0000109B145EADB08F10108A845E3DB38460A
:100700002DF036FA8246014601982DF0D5F8019079
:100710000120029049E04FF0000AD0463AE04FF045
:10072000000912E004EBC90000EBE800017808F0D2
:10073000070201209040014205D04FF07E51504603
:100740002DF046F8824609F10109A945EADB029835
:100750002DF00EFA0090019912E00000081600201A
:100760000C16002010160020141600201816002069
:100770001C1600202016002050DF002064DF00201F
:100780002DF056FA834651462DF01EFA00D804E0AB
:1007900008F10108701E4045C1DC00BFFD48029908
:1007A00040F821800298401C0290781C02998142F6
:1007B000B1DB0120029035E04FF0000AD14626E07F
:1007C0004FF0000812E004EBC90000EBE8000178EC
:1007D00008F0070201209040014205D04FF07E5101
:1007E00050462CF0F5FF824608F10108B045EADBDF
:1007F00002982DF0BDF9009001992DF019FA834669
:1008000051462DF0E1F900D804E009F10109681E14
:100810004845D5DC00BFE049029841F82090029895
:10082000401C0290781C02998142C5DB0020029096
:1008300032E0029991FBF7F1D74A52F82120029950
:1008400091FBF7F1491CD44B53F82110501800EBE1
:10085000D0714910D14A1268029B42F823100299C4
:1008600091FBF7F207FB1211CA4A52F821200299B4
:1008700091FBF7F307FB1311491CC64B53F82110EA
:10088000501800EBD0714910C54A1268029B42F81B
:1008900023100298401C029007FB07F0029988423F
:1008A000C7DCBDE8FE8F2DE9F34F8FB04024402018
:1008B0000A901025AA000021B94800680EF0ACFD8E
:1008C000AA000021B54800680EF0A6FD04232146C9
:1008D0000A9A0F98FFF7E0FEE2000021B148006895
:1008E0000EF09AFD00200B9060E3AC4801680B9875
:1008F00051F820000290AA4801680B9851F8200096
:10090000019002980830402801DD402001E0029863
:100910000830089001980830402801DD402001E0AF
:100920000198083006900298083801D5002001E0AF
:100930000298083809900198083801D5002001E094
:1009400001980838079009980E9027E307980D90B2
:100950001CE3DDE90D120F98FFF781FE8146DDE90A
:100960000D12491C0F98FFF77AFE022101FB009936
:10097000DDE90D12891C0F98FFF771FE81440E9A74
:10098000921C0D990F98FFF76AFEA9EB00090E9AC9
:10099000921C0D99491C0F98FFF761FE022101FB83
:1009A00010990E9A921C0D99891C0F98FFF757FE0B
:1009B000A9EB000007B2DDE90D12891C0F98FFF7C3
:1009C0004EFE81460E9A521C0D99891C0F98FFF716
:1009D00046FE022101FB00990E9A921C0D99891C7A
:1009E0000F98FFF73CFE8144DDE90D120F98FFF7E9
:1009F00036FEA9EB00090E9A521C0D990F98FFF7CD
:100A00002EFE022101FB10990E9A921C0D990F984F
:100A1000FFF725FEA9EB00000FFA80F8002F02DB9C
:100A2000B8F1000F00DA00BF41463846FFF792FDEB
:100A30000390039841100B9801FB05060398401C96
:100A400040100B9900FB0510059002990E98401A72
:100A5000083000EB0010019A0D99891A08440830FB
:100A6000514951F820000490039810281CD2DFE867
:100A700000F0081C4A629FB3F2F0EFEEEDECEBEAF7
:100A8000E9E838462DF074F8824604992DF0D0F844
:100A900081464448006850F8261048462CF098FEDD
:100AA0004049096841F826006CE2A7EB08002DF0E8
:100AB0005FF8824604992DF0BBF8814639480068FA
:100AC00050F8261048462CF083FE3649096841F854
:100AD000260040462DF04CF8834634492DF0A8F806
:100AE000824604992DF0A4F881462E4802680598A4
:100AF00052F8201048462CF06BFE2A490968059AE6
:100B000041F822003EE240462DF032F88346274964
:100B10002DF08EF8824604992DF08AF881462148FE
:100B2000006850F8261048462CF052FE1D4909680E
:100B300041F8260026E238462DF01AF883461B4974
:100B40002DF076F8824604992DF072F8814615480A
:100B5000006850F8261048462CF03AFE1149096802
:100B600041F82600A8EB07002DF002F88246049910
:100B70002DF05EF881460B480268059852F8201067
:100B800048462CF025FE07490A68059942F82100DD
:100B9000F8E1000050DF002064DF00201C16002078
:100BA000181600200C16002068680308F704B53FEB
:100BB00040462CF0DDFF824604992DF039F881463D
:100BC000FE48006850F8261048462CF001FEFB490C
:100BD000096841F82600D5E107EB08002CF0C8FFB2
:100BE000824604992DF024F88146F448006850F8B4
:100BF000261048462CF0ECFDF049096841F8260023
:100C0000B7F1000901DB494601E0C9F100010846DE
:100C10002CF0AEFFEA4900902DF00AF883460499C3
:100C20002DF006F88246E5480068059A50F8221033
:100C300050462CF0CDFDE1490968059A41F82200A3
:100C4000A0E166E14DE111E1F5E0BFE09FE069E080
:100C50004DE018E0FFE740462CF08AFF8346D84974
:100C60002CF0E6FF824604992CF0E2FF8146D3483F
:100C7000006850F8261048462CF0AAFDCF490968B4
:100C800041F826007EE140462CF072FF8346CC49B5
:100C90002CF0CEFF824604992CF0CAFF8146C7484B
:100CA000006850F8261048462CF092FDC3490968A8
:100CB00041F8260017EB080901D4494601E0C9F1C3
:100CC000000108462CF054FF834604992CF0B0FF35
:100CD0008246BA480068059A50F8221050462CF017
:100CE00077FDB6490968059A41F822004AE1B7F153
:100CF000000901DB494601E0C9F1000108462CF07A
:100D000037FF834604992CF093FF8246AB48006876
:100D100050F8261050462CF05BFDA849096841F8B0
:100D200026002FE1A8EB07002CF022FF8246049951
:100D30002CF07EFF8146A148006850F826104846F6
:100D40002CF046FD9D49096841F82600B8F10009DC
:100D500001DB494601E0C9F1000108462CF008FF1B
:100D6000974900902CF064FF834604992CF060FFB3
:100D7000824692480068059A50F8221050462CF09E
:100D800027FD8E490A68059942F82100FAE0B8F17A
:100D9000000901DB494601E0C9F1000108462CF0D9
:100DA000E7FE874900902CF043FF834604992CF01E
:100DB0003FFF82468148006850F8261050462CF0CC
:100DC00007FD7E49096841F82600DBE0B7F100091C
:100DD00001DB494601E0C9F1000108462CF0C8FEDC
:100DE000774900902CF024FF834604992CF020FFD3
:100DF00082467248006850F8261050462CF0E8FCF5
:100E00006E49096841F82600A7EB08002CF0B0FEF7
:100E1000824604992CF00CFF8146684802680598C8
:100E200052F8201048462CF0D3FC64490A68059912
:100E300042F82100A6E0B8F1000901DB494601E0D3
:100E4000C9F1000108462CF093FE834604992CF06A
:100E5000EFFE82465948006850F8261050462CF0A4
:100E6000B7FC5649096841F826008BE017EB0809E2
:100E700001D4494601E0C9F1000108462CF078FE92
:100E8000834604992CF0D4FE82464C48006850F802
:100E9000261050462CF09CFC4849096841F8260071
:100EA000B7F1000901DB494601E0C9F1000108463C
:100EB0002CF05EFE424900902CF0BAFE8346049965
:100EC0002CF0B6FE82463D480068059A50F8221084
:100ED00050462CF07DFC39490A68059942F82100FA
:100EE00050E038462CF044FE834635492CF0A0FEF5
:100EF000824604992CF09CFE81463048006850F8E8
:100F0000261048462CF064FC2C49096841F826005C
:100F100038E0B8F1000901DB494601E0C9F1000100
:100F200008462CF025FE264900902CF081FE8346D1
:100F300004992CF07DFE82462048006850F8261067
:100F400050462CF045FC1D49096841F8260017EB76
:100F5000080901D4494601E0C9F1000108462CF016
:100F600007FE834604992CF063FE8246134800680E
:100F700050F8261050462CF02BFC1049096841F817
:100F8000260000BF00BF0D98401C0D9006990D98DB
:100F900088427FF7DEAC0E98401C0E9008990E98A0
:100FA00088427FF7D3AC0B98401C0B900B98A8425B
:100FB0007FF49BAC00200B901FE000000C1600207B
:100FC000F704B53F00200C9011E0DDE90B0101FBB7
:100FD0000506FF49096851F82600FE4920F01AFE6F
:100FE000FD49096841F826000C98401C0C900C98AB
:100FF0000828EADB0B98401C0B900B981028E1DBCB
:1010000011B0BDE8F08F2DE9FF4F8BB004460D46BF
:101010001E46199F0020079090E2079805EB80007C
:101020000088ADF82800079805EB80004088ADF8EF
:101030002A000798401C05EB80000088ADF82400CA
:101040000798401C05EB80004088ADF82600BDF9EC
:101050002800BDF92410884272D1BDF92A000890F9
:1010600067E0002E41D04FF0FF383AE04FF0FF30FC
:10107000069031E0089810EB08002AD4089800EB9D
:1010800008011898814224DABDF928000699401811
:101090001FD4BDF9281006980844B84219DABDF9E2
:1010A00028100698084405900898404404EBC000B6
:1010B000059900EBE100007801F007020121914061
:1010C00008430899414404EBC101059A01EBE20190
:1010D00008700698401C069006980228CAD108F1AC
:1010E0000108B8F1020FC1D116E0BDF92800059042
:1010F000089804EBC001059801EBE0000078059921
:1011000001F00702012191400843089904EBC10254
:10111000059902EBE1010870BDF92600BDF92A101E
:10112000884203DD0898401C089002E00898401EA1
:101130000890BDF926100898814292D1FBE1FFE7A3
:10114000BDF92A00BDF92610884275D1BDF92800E5
:1011500008906AE0002E42D04FF0FF383BE04FF09D
:10116000FF30069032E00699089840182BD4069973
:10117000089808441899884225DABDF92A0010EB2E
:10118000080020D4BDF92A004044B8421BDA069971
:10119000089808440590BDF92A00404404EBC001BA
:1011A000059801EBE0000078059901F007020121A4
:1011B00091400843BDF92A10414404EBC10205994E
:1011C00002EBE10108700698401C06900698022880
:1011D000C9D108F10108B8F1020FC0D118E0089890
:1011E0000590BDF92A0004EBC001059801EBE00071
:1011F0000178059800F00702012090400143C8B231
:10120000BDF92A1004EBC101059A01EBE201087057
:10121000BDF92400BDF92810884203DD0898401C60
:10122000089002E00898401E0890BDF92410089824
:1012300081428FD17FE1FFE7BDF92410BDF928205D
:10124000881A2CF095FC8246BDF92610BDF92A209B
:10125000881A2CF08DFC834651462CF02DFB8146DC
:101260002CF08AFACDE9020121F00041CDE900011C
:101270005AA00CC800982BF033FF13D2BDF92410EC
:10128000BDF92820881A2CF073FC8146BDF9261080
:10129000BDF92A20881A2CF06BFC824649462CF0B6
:1012A0000BFB12E0BDF92610BDF92A20881A2CF09C
:1012B0005FFC8146BDF92410BDF92820881A2CF066
:1012C00057FC824649462CF0F7FA0490BDF92420D9
:1012D000BDF92830D01ABDF92620BDF92A30D11A1F
:1012E00001D40B4600E04B42002801DB024600E03F
:1012F000424293426BDA002008907EE008982CF07E
:1013000037FC039004992CF093FC83462CF0CAFB25
:10131000BDF92A1000EB0109BDF92800089900EB7E
:10132000010A002E3CD04FF0FF3835E04FF0FF307F
:1013300006902CE019EB080026D409EB0800189958
:10134000884221DA06981AEB00001DD40698504412
:10135000B84219DA0AF10100059009EB080004EB24
:10136000C000059900EBE1000178059800F0070244
:10137000012090400143C8B209EB080104EBC10110
:10138000059A01EBE20108700698401C0690069849
:101390000228CFD108F10108B8F1020FC6D113E03D
:1013A000CDF814A004EBC900DDF814A000EBEA00AE
:1013B00001780AF00702012090400143C8B204EB13
:1013C000C90101EBEA010870BDF924000AE01EE042
:1013D0000C16002085EBD13E101600200000000006
:1013E0000000F03FBDF92810884203DD0898401C3A
:1013F000089002E00898401E0890BDF92400BDF94D
:101400002810401A089988427FF478AF92E0BDF91D
:101410002420BDF92830D01ABDF92620BDF92A3084
:10142000D11A01D40B4600E04B42002801DB0246F2
:1014300000E0424293427DDB0020089072E0BDF95B
:101440002A10089801EB000908982CF091FB0390F2
:1014500004992CF0EDFB83462CF024FBBDF92810F9
:1014600000EB010A002E3CD04FF0FF3835E04FF082
:10147000FF3006902CE019EB080026D409EB080198
:101480001898814221DA06981AEB00001DD40698BC
:101490005044B84219DA06985044059009EB080008
:1014A00004EBC000059900EBE1000178059800F01D
:1014B0000702012090400143C8B209EB080104EB88
:1014C000C101059A01EBE20108700698401C0690E4
:1014D00006980228CFD108F10108B8F1020FC6D151
:1014E00013E0CDF814A004EBC900DDF814A000EB64
:1014F000EA0001780AF00702012090400143C8B2D7
:1015000004EBC90101EBEA010870BDF92600BDF941
:101510002A10884203DD0898401C089002E00898D1
:10152000401E0890BDF92600BDF92A10411A0898FE
:10153000814284D100BF0798401C07900D98411E3E
:10154000079881427FF469AD0FB0BDE8F08F2DE9B7
:10155000F04F099C15464FF0FF360F46B4464FF04A
:10156000000935E000EB890ABAF902A0BA4504DAAD
:1015700000EB890ABAF902A000E0BA46574600EB30
:10158000890ABAF900A0AA4504DA00EB890ABAF977
:1015900000A000E0AA46554600EB890ABAF902A06D
:1015A000E24504DD00EB890ABAF902A000E0E24658
:1015B000D44600EB890ABAF900A0B24504DD00EB7D
:1015C000890ABAF900A000E0B246564609F10109BD
:1015D000DDF828A0D145C5DBACEB070A0AF1010A0A
:1015E00093FBFAFA0AF1010EA6EB050A0AF1010AC9
:1015F00094FBFAFA0AF101084FF000092BE000EB26
:10160000890ABAF902A0AAEB070A0AFB03FAACEBB3
:10161000070B0BF1010B9AFBFBFAF2440FFA8AFA63
:1016200000EB890BABF802A000EB890ABAF900A025
:10163000AAEB050A0AFB04FAA6EB050B0BF1010B5A
:101640009AFBFBFAC2440FFA8AFA00EB890BABF85B
:1016500000A009F10109DDF828A0D145CFDBBDE8E4
:10166000F08F2DE9FF4784B014461D46BDF91000E8
:10167000BDF91410884223D1002619E0BDF81000EE
:10168000296804EB81010880BDF81200304400B2E3
:10169000296804EB810148802868401C2860BDF956
:1016A0001600BDF91210884201DD761C00E0761E9E
:1016B000BDF91600BDF91210401AB042DED1E9E0C2
:1016C000BDF91200BDF91610884223D1002619E099
:1016D000BDF81200296804EB81014880BDF81000B4
:1016E000304400B2296804EB810108802868401C5E
:1016F0002860BDF91400BDF91010884201DD761C88
:1017000000E0761EBDF91400BDF91010401AB04279
:10171000DED1BFE0BDF91410BDF91020881A2CF0FD
:1017200027FA8146BDF91610BDF91220881A2CF04F
:101730001FFA824649462CF0BFF880462CF01CF870
:10174000CDE9020121F00041CDE90001AFF2743092
:101750000CC800982BF0C4FC13D2BDF91410BDF9CD
:101760001020881A2CF004FA8046BDF91610BDF935
:101770001220881A2CF0FCF9814641462CF09CF886
:1017800012E0BDF91610BDF91220881A2CF0F0F9FC
:101790008046BDF91410BDF91020881A2CF0E8F924
:1017A000814641462CF088F80746BDF91420BDF962
:1017B0001030D01ABDF91620BDF91230D11A01D45B
:1017C0000B4600E04B42002801DB024600E04242AB
:1017D00093422FDC002625E0BDF81000304400B213
:1017E000296804EB8101088030462CF0C1F981465C
:1017F00039462CF01DFA80462CF054F9BDF8121031
:10180000084400B2296804EB810148802868401C24
:101810002860BDF91400BDF91010884201DD761C66
:1018200000E0761EBDF91400BDF91010401AB04258
:10183000D2D12EE0002625E0BDF81200304400B2DF
:10184000296804EB8101488030462CF091F98146EB
:1018500039462CF0EDF980462CF024F9BDF8101033
:10186000084400B2296804EB810108802868401C04
:101870002860BDF91600BDF91210884201DD761C02
:1018800000E0761EBDF91600BDF91210401AB042F4
:10189000D2D100BF08B0BDE8F0872DE9F84F04466B
:1018A0000D461646701E00EBD0714FEA6109A5EB9C
:1018B00009000090CA46A8000DF0AAFD8346AA00C0
:1018C0002146584600F09EFDB54205DB06EBD67179
:1018D0004910B6EB410101D1BDE8F88F4F463CE01D
:1018E000002004EB8701088004EB87014880CAF1DF
:1018F00000081BE004EB8700008807EB08010BEBF6
:1019000081010988084400B204EB8701088004EBD8
:101910008700408807EB08010BEB810149880844E8
:1019200000B204EB8701488008F10108D045E1DDF1
:1019300004EB8700B0F9000090FBF6F000B204EB76
:101940008701088004EB8700B0F9020090FBF6F0F5
:1019500000B204EB870148807F1C00988742BFDB00
:1019600058460DF051FDB7E72DE9FF4F91B0044601
:101970000D461E9E0327802010900F9040200E9051
:101980000D9000200B900A90814680200990052040
:10199000049029462046049AFFF77FFF4FF0010A82
:1019A00029E004EB8A01B1F90010AAF1010204EB6D
:1019B0008202B2F90020881A01D4014600E04142B7
:1019C000089104EB8A01B1F90210AAF1010204EBBB
:1019D0008202B2F90220881A01D4014600E0414295
:1019E0000791DDE90710884201DB089800E00798BD
:1019F00081440AF1010AAA45D3DB4FEA89000DF0C0
:101A000007FD80464FEA8902002140460DF004FDA3
:101A10004FF0000A15E00AF1010004EB80010422F6
:101A200003A800F0EFFC04EB8A01042202A800F0F6
:101A3000E9FC0AAB4246DDE90201FFF712FE0AF1BA
:101A4000010A681E5045E6D14FEA8900B0FBF7F065
:101A500003900DF0DDFC0C904FEA8900B0FBF7F02D
:101A60000246002103900C980DF0D6FC4FF0000ABE
:101A700013E008EB8A000088DDE90B2101EB82010D
:101A8000088008EB8A004088DDE90B2101EB820128
:101A900048800B98401C0B90BA44CA45E9DB40468D
:101AA0000DF0B2FC0B9B0E9ACDE90023DDE90C038F
:101AB000DDE90F12FFF74BFD4FF400720021FD48E6
:101AC00000680DF0A9FCDDE90D23CDE90023012319
:101AD000F848DDE90B210068FFF795FA0C980DF046
:101AE00093FCF44809990068FEF7DDFE2823099A63
:101AF000CDE900230123F048F0490268F04800686E
:101B0000FEF7F2FC1498012806D0022809D0032819
:101B10000CD0042814D10EE0002006900A20059075
:101B200012E00A200690242005900DE02420069063
:101B30003E20059008E0002006903E20059003E03E
:101B4000002015B0BDE8F08F00BF4FF4F8720021FF
:101B5000DC4800680DF060FC4FF0000A40E04FF0F8
:101B6000000B30E0069A524402EB8202D64B03EBA4
:101B7000421252F82B10D04A126852F82B002CF067
:101B800035F90290069A524402EB8202CE4B03EBE7
:101B9000421252F82B10C84A126852F82B002CF04F
:101BA00025F9019002992CF043F80390C54800688C
:101BB00050F83A1003982BF00BFEC249096841F81F
:101BC0003A000BF1010BBBF1280FCBD150462BF0A3
:101BD000CFFFBC49096801EBCA0148600AF1010A5C
:101BE000DDE90501401A5045B9D1DDE90501401A8A
:101BF000421E0021B3480068FEF718FC4FF0000AAF
:101C00000EE0B049096801EBCA0148682BF04AFFB1
:101C100006990844AD49085C06F80A000AF1010A71
:101C200013988245EDDB002006F80A00307888E73B
:101C30002DE9F84F04460D4616461F46DDF828806C
:101C40004FF000094FF6FF7AD346012D02DCC8465B
:101C5000BDE8F88F4FF000091CE004EB8900B0F9F3
:101C6000001009F1010004EB8000B0F9000081428E
:101C70000BD104EB8900B0F9021009F1010004EB6B
:101C80008000B0F90200814200D006E009F10100B5
:101C90001FFA80F9681E4845DFDC00BF681E484512
:101CA00000D1D5E74FF0000919E004EB8900B0F945
:101CB0000000504504DA04EB890000881FFA80FA1E
:101CC00004EB8900B0F90200584504DA04EB8900FE
:101CD00040881FFA80FB09F101001FFA80F9A9452D
:101CE000E3DB4FF0000915E004EB89000088A0EB6E
:101CF0000A0000B204EB8901088004EB89004088E7
:101D0000A0EB0B0000B204EB8901488009F101004F
:101D10001FFA80F9A945E7DB3B46324629462046B3
:101D2000CDF80080FFF720FE92E72DE9F84F4FF045
:101D30000009C3F800900124EBE0A4F1010900EBD5
:101D40008909B9F9005000EB8409B9F900A0CDF870
:101D500000A0A4F1010900EB8909B9F9026000EBC8
:101D60008409B9F90270DDF800A0BAEB050901D4C5
:101D7000CA4601E0C9F1000AD446B7EB060901D40E
:101D8000CA4601E0C9F1000AD646F44559DD4FF0D4
:101D9000000853E0DDF80090A9450ADD05EB0809CD
:101DA0000FFA89F9D3F800A002EB8A0AAAF800908A
:101DB00009E0A5EB08090FFA89F9D3F800A002EBB6
:101DC0008A0AAAF80090B7421ADDD3F800A002EB05
:101DD0008A0ABAF900A0BAEB050901D4CA4601E0A3
:101DE000C9F1000A0AFB0EFA9AFBFCFAB2440FFA98
:101DF0008AFAD3F800B002EB8B0BABF802A01AE022
:101E0000D3F800A002EB8A0ABAF900A0BAEB0509E0
:101E100001D4CA4601E0C9F1000A0AFB0EFA9AFB96
:101E2000FCFAA6EB0A0A0FFA8AFAD3F800B002EB22
:101E30008B0BABF802A01B1D08F10108E045A9DBE4
:101E400066E04FF0000861E0B7420ADD06EB0809E2
:101E50000FFA89F9D3F800A002EB8A0AAAF80290D7
:101E600009E0A6EB08090FFA89F9D3F800A002EB04
:101E70008A0AAAF80290DDF80090A94528DDD3F877
:101E800000A002EB8A0ABAF902A0BAEB060901D453
:101E9000CA4601E0C9F1000A0AFB0CFA9AFBFEFAF5
:101EA000AA440FFA8AFAD3F800B002EB8B0BABF816
:101EB00000A028E008160020141600202C72030849
:101EC00010160020201600202CC20308ECE803089E
:101ED000D3F800A002EB8A0ABAF902A0BAEB06090D
:101EE00001D4CA4601E0C9F1000A0AFB0CFA9AFBC8
:101EF000FEFAA5EB0A0A0FFA8AFAD3F800B002EB51
:101F00008B0BABF800A01B1D08F10108F0459BDB13
:101F1000641C8C42FFF611AFBDE8F88F704710B516
:101F20004C1084EA530404D54042C1F1000138BF8B
:101F3000491E1B4204D55242C3F1000338BF5B1E49
:101F400000F0EAFA14F0804F04D04042C1F10001E1
:101F500038BF491E14F0004F04D05242C3F10003B1
:101F600038BF5B1E10BD00000FB4044910B503AAB2
:101F7000029800F0F3FD10BC5DF814FB080000208F
:101F80000FB41CB5074B06AA7B4469460090059820
:101F900000F0B5FD0020694600F0C4FD1CBC5DF8F2
:101FA00014FB0000990B000070B5044685690068B9
:101FB000C10601D5302600E02026C00708D070BD3C
:101FC000D4E9012130469047206A00F101002062E7
:101FD0006D1EF5D570BD70B5044685690068C007F3
:101FE00008D170BDD4E9012120209047206A00F17A
:101FF000010020626D1EF5D570BD70B505460C461A
:10200000012A05D02868800600D5EA69002302E08D
:10201000012305E05B1C934202D2E05C0028F9D169
:10202000A869E618C01AA861286A184428622846D8
:10203000FFF7BAFF04E0D5E9012114F8010B90473E
:10204000B442F8D32846FFF7C6FF70BD2DE9F04132
:102050000746002510687529394616A411D0AFF33C
:102060000080002803DAC0F1000013A407E03968FB
:102070008A0701D511A402E0490704D510A401255F
:1020800001E0AFF3008000210A2307F1240607E0F6
:10209000B0FBF3F203FB1200303070541046491CC1
:1020A0000028F5D12B4622463846BDE8F04100F025
:1020B000B5BA0000000000002D0000002B00000059
:1020C0002000000070B504460D4621461068AFF3AD
:1020D00000802168090502D5104A7A4402E00F4ABF
:1020E0007A440E32002104F1240307E000F00F06C9
:1020F0004FEA1010965D5E5401F101010028F5D100
:1021000003462068000704D5702D02D009B11132B2
:1021100002232046BDE8704000F080BA4CC803009E
:102120002DE9F05F044689464FF0000ADFF878B1E8
:10213000FB44C0F820A02046E1688847002875D0FD
:10214000252806D0D4E901219047206A401C20624E
:10215000F1E700265F462046E168884720280546CB
:1021600008DB312D06D207EB050010F8200C08B172
:102170000643F0E7B00701D526F00406C4F81CA01A
:102180000027C4F818A02A2D09D028460CF0ABFF70
:1021900038B304EB8708303DC8F8185019E059F8F7
:1021A000041B204604EB87029161E1688847012FF8
:1021B000054618D1E069002820DA26F020061DE047
:1021C000D8F8180000EB800005EB40003038C8F864
:1021D00018002046E168884705460CF084FF002877
:1021E000EED1012F0AD02E2D08D12046E168884774
:1021F0007F1C0546022F46F02006C4DBA06900289C
:1022000003DA404246F00106A061F00701D026F053
:1022100010066C2D0BD0682D09D04C2D39D06A2DAD
:1022200035D0742D35D07A2D33D016E038E0E16802
:102230002F4620468847B842054609D16C2F26D044
:102240004FF48060E168064320468847054604E075
:102250006C2F1AD04FF4807006430DB3A5F14100E6
:10226000192802D8203546F400664A4629462046F9
:1022700026604E46FDF7B6FF80B101280BD0F61D53
:1022800026F0070000F1080955E74020E4E7802028
:10229000D8E70020D6E706F104094CE7284651E7C5
:1022A000206ABDE8F09F00001EC8030030B5054657
:1022B0000B462A4613F8014B12F8010B08B1A04255
:1022C000F8D01CB1002802D06D1CF1E7284630BDC3
:1022D00040EA0103024630B59B0710D14FF00134AC
:1022E00000E008C208C91D1B9D4315EAC41FF8D0B1
:1022F00013F0FF0102F8011B0DD01B0AF8E711F8DB
:10230000013B002B02F8013B05D011F8013B002BEB
:1023100002F8013BF3D130BD10B5431C02E010F8C8
:10232000011B71B18107FAD14FF0013202C88C1A3A
:102330008C4314EAC211F9D0C01A0A0603D0C01E99
:1023400010BDC01A10BD0A0401D0801E10BD0902C4
:10235000FCD0401E10BD40EA010370B59B072ED192
:102360004FF00136042A2AD308C810C9121F9D1B3A
:102370009D4315EAC61517D0D8B2E1B2401A50EA0B
:10238000056110D198B2A1B2401A50EA05410AD1B4
:1023900023F07F4024F07F41401A50EA052102D10A
:1023A000180EA0EB146070BDA342DBD018BA21BA9E
:1023B000884201D9012070BD4FF0FF3070BD0AB9CD
:1023C000002070BD10F8013B11F8014B63B1A3422E
:1023D0000AD1521E08D010F8013B11F8014B1BB175
:1023E000A34201D1521EEDD1181B70BD421E12F83E
:1023F000013F002BFBD111F8013B002B02F8013B00
:10240000F9D17047032A40F2308010F0030C00F03D
:10241000158011F8013BBCF1020F624498BF11F81E
:1024200001CB00F8013B38BF11F8013BA2F10402D7
:1024300098BF00F801CB38BF00F8013B11F003034F
:1024400000F0EE83083AC0F0088051F8043B083AE7
:1024500051F804CBA0E80810F5E7121D5CBF51F855
:10246000043B40F8043BAFF30080D20724BF11F8CF
:10247000013B11F801CB48BF11F8012B24BF00F834
:10248000013B00F801CB48BF00F8012B704700006A
:102490004FF0013C50F8042B51F8043B9A4221D1F3
:1024A000A2EB0C03934313EACC1317D150F8042B7F
:1024B00051F8043B9A4215D1A2EB0C03934313EA63
:1024C000CC130BD150F8042B51F8043B9A4209D19C
:1024D000A2EB0C03934313EACC13DBD04FF00000C4
:1024E000704700BFD01A01BAB1FA81F101F01801AA
:1024F00022FA01F0CB40C1F12001DBB2C0B2C01A18
:102500002CFA01F3D11A914311EAC311E6D17047B5
:10251000704770477047704753EA020C00F06980BB
:102520002DE9F04B4FF00006002B1FBFB3FA83F5E7
:1025300003FA05F424FA05F65E4012BF1643B2FA18
:1025400082F502FA05F4C5F120051EBF22FA05FC4A
:1025500044EA0C04203556EA044C4FEA144418BFF0
:10256000641C4FF000084FF00009904271EB030C1F
:1025700039D3002919BFB1FA81F701FA07F6B0FA89
:1025800080F700FA07F6C7F120071EBF20FA07FC04
:1025900046EA0C062037B6FBF4FCA7EB0507103F14
:1025A00007F01F0BCBF120060CFA0BFB2CFA06F6FA
:1025B00044BFB3460026202FA4BF5E464FF0000B59
:1025C0005BEA060C08BF4FF0010B19EB0B09ABFBE4
:1025D000027C48EB0608C01B06FB02CC0BFB03CCBD
:1025E00071EB0C01C1E70B46024641464846BDE887
:1025F000F08B13B54FF000004FF00001AFF30080F7
:10260000BDE81C40704710B500F040FB006810BDED
:1026100010B5044600F03AFB046010BD2DE9F04708
:102620000D4604469246994600F124080168880642
:1026300004D5E06921F01001216000E00120A842EA
:1026400002DDA0EB050700E00027A16907EB05020A
:1026500002EB0900A1EB0000A0612068C00602D4D3
:102660002046FFF7A1FC002608E0D4E901211AF872
:1026700006009047206A401C761C20624E45F4DB21
:102680002068C0060AD52046FFF78EFC06E0D4E994
:10269000012130209047206A401C2062381EA7F19B
:1026A0000107F4DC07E0D4E9012118F805009047A0
:1026B000206A401C2062281EA5F10105F3DC20469B
:1026C000FFF789FC2068000602D50220BDE8F087EC
:1026D0000120FBE770472DE9FF4F0C461E464FF0E7
:1026E000FF378BB0D2E90001DDF860800A908A469E
:1026F000C1F30A5505B93D46002108464FF00000D8
:10270000BAF1000F00F4400005DA00EB80004FF44E
:10271000400101EA50004FEA9059B9F1010F00DD84
:10272000B9460A9850EA4A000FD044F61050A5F274
:10273000FF3545432F14B8F1000F1FD07542291EF5
:102740001FDD4846C9F100021CE0B8F1010F4FF04F
:10275000000001D1F24307E0302101E02154401C88
:10276000B042FBDB30460022002121540B99C1F816
:102770000880C1E900200FB0BDE8F08FBD1B6D1CC3
:10278000DDE74A4600DA694206A800F031FB06ABF5
:1027900007CB03AB07C350460A9901F07CF88DE8DC
:1027A0000700A0F500501F3800900398002D09DDA8
:1027B00042F21F014A46084403A90390684601F00B
:1027C00006FB08E0A0F500504A461F3803A9039015
:1027D000684601F024FB8DE807000004000C03D0DC
:1027E0004FF0FF30410800E01046B8F1000F03D071
:1027F0000022009215461FE0751E06D400F04AFA2A
:1028000002F1300262556D1EF8D5B346012208432D
:1028100002D000227F1C04E02078302801D1002261
:102820007F1E002A099786D01DE0112D07DA00F0DF
:1028300031FA303262556D1C50EA0102F5D108437D
:102840000FD10021681E05E0235C625C6354491CC3
:102850002254401E8142F7DBAB46A81B401E099064
:1028600001E0009848B1002004F80B000B98099A89
:10287000C0F80880C0E9002B7DE711264FF0000862
:1028800059E72DE9F04F88460446D21D22F0070192
:1028900091B0D1E90001CDE90A010BF04DFF0246EC
:1028A0000B98C00F01D02D2007E02068810701D5CB
:1028B0002B2002E0202101EAC000032A099001D068
:1028C000072A05DB03464146204600F031FA0EE1B7
:1028D0002068800601D5E06900E00620B8F1650FA8
:1028E000814606D0B8F1660F18D0B8F1670F72D1E3
:1028F00032E00020B9F1110F009001DB112301E05B
:1029000009F101030AAA01A90CA8FFF7E4FEDDE919
:102910000C70002609F10105834648E001204B4672
:1029200000904FF000470AAA01A90CA8FFF7D3FEB8
:10293000DDE90C050E990026AB4619B909F1010134
:1029400000EB0105B9EB050003D4C0F1FF3609F136
:102950000105A5EB09002BE0B9F1010F01DA4FF0F9
:1029600001090020B9F1110F0090484601DD112343
:1029700000E003460AAA01A90CA8FFF7ACFEDDE9B6
:102980000C704D4600268346206800070AD4AB45EC
:1029900000DA5D4601A8012D04DD411911F8011C82
:1029A000302907D04F4502DA17F1040F04DA01206D
:1029B000824610E06D1EEEE7002F02DCED1B3E4468
:1029C00003E0781CA84200DD0546A7EB060000F1F5
:1029D000010A4FF000472068000703D4AA4501DB35
:1029E0004FF0FF3A0021B7F1004F0DF143088DF889
:1029F000431022D002202B23002F01DA7F422D2307
:102A00000A22011EA0F1010000DC4FB197FBF2F198
:102A100002FB117C0F460CF1300C08F801CDF0E7F9
:102A2000A8F1010003702168090501D5452100E0E6
:102A30006521A0F1010800F8011C09980FA9A1EB7C
:102A4000080707F1070700B1012000EB050101EBC2
:102A5000EA70A1693844A1EB0000A0F10100A06177
:102A60002068C00602D42046FFF79EFA099830B1CC
:102A7000D4E901219047206A00F10100206220681A
:102A8000C00620D52046FFF78FFA1CE0002E04DB9D
:102A9000B34502DD01A8805D00E03020D4E90121CA
:102AA0009047206A761C401CBAF1010A20620AD1C4
:102AB00000F0E8F8C0680168405CD4E90121904763
:102AC000206A401C2062281EA5F10105DEDC07E01B
:102AD000D4E9012118F8010B9047206A401C2062BC
:102AE000381EA7F10107F3DC2046FFF774FA022035
:102AF00011B041E601694A1C02610878704700B5CF
:102B00008FB0CDE901310021059105497944CDE926
:102B1000031011466846FFF703FB0FB000BD00002D
:102B2000E5FFFFFF0A6802F8010B0A60704710B565
:102B3000436913B1AFF3008001E0FFF75EFA0120B3
:102B400010BD126800F124010A7000224A700122AF
:102B5000EDE711684FF0FF32E9E70000074B70B571
:102B60000C467B44FFF7CBFF0546204600F0B2F948
:102B700010B14FF0FF3070BD284670BDFB5501000D
:102B80000FB4002300B589B00CA900910B99CB605C
:102B9000204B7B44204A7A44CDE90632042201923C
:102BA0006FF0004202921D4A7A446B460892024638
:102BB00000202BF018FA09B05DF814FB70B506463A
:102BC0004FF0FF300C461546324686B00091CDE9F5
:102BD000010169460020049004A8FFF7D1FF0346D5
:102BE0000498211825B108B10A4600E022462A605F
:102BF00000280DD0002B02DD0098884208D0324614
:102C0000081B69460094CDE9010404A8FFF7B8FF4A
:102C100006B070BD1B020000350200007301000009
:102C200010B5203AC0F00B80B1E81850203AA0E867
:102C30001850B1E81850A0E81850BFF4F5AF5FEA9B
:102C4000027C24BFB1E81850A0E8185044BF18C94E
:102C500018C0BDE810405FEA827C24BF51F8043BF5
:102C600040F8043B08BF7047D20728BF31F8023B49
:102C700048BF11F8012B28BF20F8023B48BF00F8DD
:102C8000012B70470048704798DF002000487047CC
:102C900078DF002030B5B0F10A024FEA900E71F1F2
:102CA00000034EEA817EB0EB0E0061EB91014FEA2A
:102CB000101E4EEA017E10EB0E0041EB11114FEA9F
:102CC000102E4EEA016E10EB0E0041EB11214FEA7F
:102CD000104E4EEA014E10EB0E0041EB1141401830
:102CE00041F100014FEAD00040EA41704FEAD101C2
:102CF00010EB80054FEA810444EA907444EB010430
:102D00006D1944EB0404521BA3414FF0000348BF6C
:102D10000A3200D530BD401C41F1000130BD10B574
:102D2000044600F005F90068005D00F0010010BDE8
:102D30002DE9F04104461F4603260168072A01F4E5
:102D4000006004DB08B116A505E016A503E008B194
:102D500015A500E015A521F010002060A069C01E97
:102D6000A0610FB1401EA0612046FFF71DF94FB1D1
:102D7000D4E9012138469047206A401C2062C01CDB
:102D8000206206E0206AFAE7D4E9012115F8010B78
:102D90009047761EF8D22046FFF71DF9BDE8F08176
:102DA0004E414E006E616E00494E4600696E6600EF
:102DB000426842B1016811F8013B23B1521EC0E9DB
:102DC0000012184670470121C160881E7047416893
:102DD00059B1C368026843B98368934205D0521E53
:102DE000491CC0E90021002070474FF0FF307047B8
:102DF0002DE9F047814616468AB035487844D0E937
:102E0000002380680092CDE90130314878440C38C5
:102E1000D0E90223006903924FF03702CDE9043074
:102E200041F69B30014491FBF2F0A0F1800502FBDA
:102E300010141B3C02D56442012000E00020DFF8A2
:102E400090A080460027FA44AAF1C60A0DE0E007E8
:102E500009D03246684607EB47010AEB810100F0D2
:102E6000DEFF8DE8070064107F1C002CEFD1184FA7
:102E70007F44B43F17E0E80713D007EB04100DF1CF
:102E8000180A90E80E00AAE80E00C068F04201D1CE
:102E900098190890324606A903A800F0C0FF03ABBA
:102EA00007C36D10641C002DE5D132466946B8F1A8
:102EB000000F03A802D000F08AFF01E000F0AFFF8E
:102EC000C9E90001C9F808200AB0BDE8F087000090
:102ED00004C00300C06800F08000704700487047DD
:102EE00078DF00207546FFF7F9FFAE46050069461A
:102EF000534620F00700854618B020B5FDF7C2F90B
:102F0000BDE820404FF000064FF000074FF00008EA
:102F10004FF0000B21F00701AC46ACE8C009ACE86B
:102F2000C009ACE8C009ACE8C0098D467047000094
:102F300010B5FFF7A7FE001D10BD00BF659B020086
:102F40002DE9F04F80469B4689B00878FF2806D0CF
:102F5000491C2D2805D000244FF0000908E000206E
:102F60000CE00124F8E709EB8903491C00EB430955
:102F70000878FF28F7D114B1C9F100008146107814
:102F800000242646A2462D2801D02B2813D1521CFE
:102F90002D2802D0002082460DE00120FBE70A2008
:102FA0000025A4FB007C521C06FB00C004FB0500AE
:102FB000CC1945EB00061178FF29F0D10021084615
:102FC0004FF00000BAF1000F02D000EB8000400883
:102FD000C0F38157012F01DD4FF0FF3754EA06009F
:102FE00009EB0B054FF0000906D14FEACA71C8E999
:102FF000009109B0BDE8F08F15F5FA7F4FF0020B94
:1030000004DA4FEACA71C8E900910CE0B5F5FA7F1D
:103010000EDDF2487844D0E90012C8F8001042EA08
:10302000CA71C8F80410FFF731FEC0F800B0E0E73D
:10303000291E02DAC7F1000200E03A4600DA6942CE
:1030400006A8FFF7D5FE06AB07CB03AB07C344F2D8
:103050003E0059EA06010090484604D144F21E01A0
:1030600026464C460091310C0904014306D10099D3
:10307000360446EA144624041039009106F07F41D4
:10308000014306D10099360246EA14662402083943
:10309000009106F07041014306D10099360146EADD
:1030A00014762401091F009106F04041014306D126
:1030B0000099B60046EA9476A400891E009106F0B5
:1030C0000041084304D1009824197641401E009025
:1030D0003A466846CDE90164002D03A902DD00F0FF
:1030E000B2FE01E000F087FEBAF1000F04460D4683
:1030F00001D084F0004440F2FF7624F000402843E1
:1031000003D0C4F30A50B04214D1FFF7BFFDC0F89A
:1031100000B0C4F30A50B0420CD1B1487844D0E9B1
:103120000012C8F8001004F0004142EA0100C8F89B
:1031300004005EE7C8E900545BE72DE9FF4F1F4636
:103140004FF0000A4FF0FF38454691B0D7E90146ED
:10315000CDF83CA0FFF796FDC0680168405C109078
:10316000B96912986D1C8847396A814688470028DA
:10317000F6D119F101000AD0002E24F4D06412DD3A
:10318000B9F12B0F08D0B9F12D0F0CD102E0404658
:1031900015B02FE744F48064B96912986D1C884714
:1031A0008146A6F10106600504A901D52D2000E0A5
:1031B0002B20002E01F1010B0DF130088DF81000CD
:1031C0003FDDB9F1690F08D0B9F1490F05D0B9F168
:1031D0006E0F02D0B9F14E0F1CD13B4601A80095ED
:1031E000A0E85002DDE912126FF002002AF0FFFEA3
:1031F000C11CCDD10EE0B96912986D1C884781467B
:103200001398761E44F4007405600F98401C002E3D
:103210000F9016DDB9F1300FEDD0B9F1780F02D073
:10322000B9F1580F0DD10F9801280AD13B46CDE9CD
:103230000054DDE91212001F02962AF0D6FEC11CCE
:10324000A6D1109989453ED144F0800406E0139937
:10325000681CAAF1010A44F400740860B969761E7A
:1032600012986D1C884730288146F0D02BE01099C9
:10327000894505D1200603D4761E44F0800418E069
:1032800048460BF030FF08B3761E0DF123018B4545
:1032900044F4007408D2A9F130000BF8010B2006A9
:1032A00007D5AAF1010003E0200602D40AF10100CB
:1032B0008246A00502D51399681C0860B969129866
:1032C0006D1C88478146002ED1DC54E0002E52DD73
:1032D000B9F1650F02D0B9F1450F4CD1A0054AD51F
:1032E000B969761E12986D1C24F440748847002E2C
:1032F00081460DDD2B2804D0B9F12D0F08D144F4FF
:103300008074B96912986D1C88478146A6F1010640
:10331000E00501D52D2100E02B2108F8011BCDF897
:10332000008021E0761E0DF13901884544F40074D7
:103330000CD2A9F1300010F0FF0088F8000002D193
:103340000099884509D908F1010806E0E00501D592
:10335000244801E042F20F708246B96912986D1C50
:103360008847814613980560002E04DD48460BF01F
:10337000BAFE0028D6D1F96912988847FF20534633
:103380008BF8000088F8000000200A900B9004AA37
:103390000CA90AA8FFF7D4FDA00502D46FF0010024
:1033A000F6E614F0240F0AD0E00714D13868DDE9FE
:1033B0000A12031D3B600068C0E900120BE00AA975
:1033C00068460BF038FEE00705D13868009A011D09
:1033D0003960006802602846DAE6000048F9030018
:1033E00040F80300F1D8FFFF0446AFF30080204609
:1033F000FCF729FF004870477CDF00202DE9FF4FD4
:103400001F464FF03C0987B04FF00042DDE9141031
:1034100001F10108DDF858A002EA405003900020B5
:1034200005908346054604460490B969461E0898EF
:103430008847AAF1010A0290BAF1000F37DD02981D
:103440002E2815D0102100F018FA00282ADB4FF0A2
:10345000010B0599014316D0B9F1000F0BDB4A4669
:10346000C11700F0F7F905430C43A9F1040905E081
:103470000120049007E008B145F001050120059006
:10348000049800B9361DB969089808F10108884701
:10349000BBF1000FAAF1010A0290CDD00999C1F841
:1034A0000080C9E70298702808D0502806D0F96932
:1034B00008988847BBF1000F14D04FE0002002901D
:1034C0000120BBF1000F049009D0B969089808F1F8
:1034D00001088847AAF10109B9F1000F07DCF96971
:1034E000089888476FF001000BB0BDE8F08F2B28DB
:1034F00004D02D280CD14FF0FF300490B969089802
:1035000008F101088847A9F10109B9F1000FE6DDCA
:10351000411CE4D00A2100F0B0F90028DFDB029959
:1035200008F1010801EB810100EB41000290B9694B
:10353000089888470A2100F0A0F9099AA9F1010921
:10354000B9F1000FC2F8008001DD0028E7DAF9695F
:10355000089888470499029800FB016655EA040020
:1035600001D103989FE004F04041090004D1A40078
:1035700044EA9574AD00B61E04F00041080002D183
:103580006D196441761E159810F0240F03D04FF08A
:103590000B095E4803E04FF028096FF07D0082467A
:1035A000564507DAAAEB06018944B9F1410F01DD5E
:1035B0004FF0410901200021A9F1010200F04AF970
:1035C000024628400B462140084301D0012000E07C
:1035D00000200290501E43F1FF3128402140084353
:1035E00001D0012000E000200299834651EA0B013E
:1035F00052D0002108464FF00000039900F440002B
:1036000039B100EB80004FF4400100EBD07001EACB
:1036100060008015012802DD4FF0FF3000E013D07C
:10362000401C39D0029860B3BBF1000F0CD14A4660
:103630000120002100F00EF928402140084301D06C
:10364000012000E00020E0B101204A46002100F006
:1036500001F9844640190A4661412B1A8C4111D365
:10366000B9F1400F09DD159810F0240F02D0AAF12E
:10367000340603E0AAF1170600E0761C00254FF09F
:10368000004409E04FF0FF331CEB030342F1FF322B
:1036900020EA030521EA0204CAF10100B04206DA79
:1036A0001B49039808430190002000900EE0039A04
:1036B000C4F3D321E80A0A43164940EA44500A43B6
:1036C0003146CDE9000268460BF002FD159810F076
:1036D000240F0BD01598C00715D13868DDE900120A
:1036E000031D3B600068C0E900120CE002A86946B7
:1036F0000BF0A1FC1598C00705D13868029A011D8E
:103700003960006802604046EEE6000002FCFFFF00
:103710000000F07F0000F03F2DE9FF4F91461D466D
:1037200085B04FF00042DDE9124BDDE914717F1ED8
:1037300002EA4B50434A40F0FF4A40EA02080022A6
:1037400021F020004928049202D04E282BD04FE0CF
:103750003DA00126D0E9001280680091CDE901204A
:10376000A9690698641C88477F1E014606D41DF887
:10377000060018B121F0200181420BD0E9690698BA
:103780008847032E34D0082E32D06FF0010009B0E4
:10379000BDE8F08F761C032E01D0082EE0D1601C0E
:1037A000C9F80000DCE7A9690698641C88477F1EF9
:1037B0002AD420F02000412826D1A9690698641C4B
:1037C00088477F1E20D420F020004E281CD1A969F4
:1037D0000698641C88477F1E48F400284AF4800A33
:1037E000C9F8004001D4282806D0E969069888471E
:1037F0005FEACB7012D022E0A9690698641C884762
:103800007F1E01D4002803DAE96906988847BCE7DF
:103810002928F1D1641CC9F80040E9E71BF0240F06
:1038200007D028680499031D2B600068C0E90018C0
:1038300005E02868021D2A600068C0F800A0204644
:10384000A5E700000000F07F494E46494E49545913
:1038500000000000B2F120030AD5C2F1200301FAF2
:1038600002F120FA03F300FA02F041EA0301704783
:1038700000FA03F14FF0000070473A2800D23038C8
:1038800020F02002412A01D3A2F13700884201D35F
:103890004FF0FF3070475FEA400C08BF91F0000F17
:1038A0004FEA8C234FEAC12243EA51514FEA1C50A0
:1038B00018BF00F5F0404FEA300018BF41F000415A
:1038C0005FEA6C5C00F02980BCF1FF3F08BF40F06C
:1038D00080407047130C06BF12044FF0100C4FF0DD
:1038E000000C130E04BF12020CF1080C130F04BFDE
:1038F00012010CF1040C930F04BF92000CF1020CA6
:10390000D30F04BF52000CF1010C11464FF000021E
:10391000A0F11F00A0EB0C00704711F0004F08BF92
:10392000704731F000413FF4D5AF0B0C06BF0904DE
:103930004FF0100C4FF0000C0B0E04BF09020CF1FD
:10394000080C0B0F04BF09010CF1040C8B0F04BF12
:1039500089000CF1020CCB0F04BF49000CF1010CE3
:10396000CCF12003A0EB0C0022FA03F302FA0CF2D4
:1039700041EA030100F10100704720F07F4C80EA2A
:10398000030023F07F47ACEB070303F57C5300F003
:10399000004003F1FF032DE980494FEA154B09B4BC
:1039A0004FEA144325EA0B4E24EA03480FF204269B
:1039B00006EB132749083E785FEA320203FB0667ED
:1039C000C7F5000707FB06F64FEA54374FEAD6461D
:1039D00006F1020607FB066CCCF1005C4FEA1C47BF
:1039E0002CEA074C07FB06F40CFB06F504EB154626
:1039F0004FEA961634BF00204FF000404FEAD1370F
:103A000006FB07FC4FEA1C4C0CFB0BF7D21B03FB1D
:103A10000CF761EB07010CFB0EF7B0EB074072EB04
:103A200017420CFB08F734BFA2EB0742B2EB074288
:103A300061EB17414FEA0C444FEA910706FB07FC84
:103A40004FEA1C4C0CFB0BF7B0EBC74072EB573244
:103A500003FB0CF734BFA2EBC742B2EBC74261EBEA
:103A600057310CFB0EF7B0EBC70072EB57720CFB33
:103A700008F734BFA2EBC702B2EBC70261EB577184
:103A8000039F4FEA816141EA921104EBCC044FEAB3
:103A9000D1374FEA826206FB07FC42EA90124FEAF6
:103AA00080604FEA1C4C0CFB0BF7D21B03FB0CF79E
:103AB00061EB07010CFB0EF7B0EB074072EB17420E
:103AC0000CFB08F734BFA2EB0742B2EB074261EBF5
:103AD00017414FEA8C554FEA910704EB9C2406FBF3
:103AE00007FC4FEA1C4C0CFB0BF7B0EBC74072EB2A
:103AF000573203FB0CF734BFA2EBC742B2EBC7420D
:103B000061EB57310CFB0EF7B0EBC70072EB57724D
:103B10000CFB08F734BFA2EBC702B2EBC70261EBA4
:103B2000577115EB4C254FEA816141EA92114FEA3A
:103B300082624FEAD13742EA901206FB07FC44F159
:103B400000044FEA80604FEA1C4C0CFB0BF7D21BC1
:103B500003FB0CF761EB07010CFB0EF7B0EB074022
:103B600072EB17420CFB08F734BFA2EB0742B2EB33
:103B7000074261EB174115EB1C154FEA813141EA11
:103B800092414FEA823242EA90424FEA80304FEA55
:103B90000C7644F1000448EA03434EEA0B484FF028
:103BA000000EB2EB080C71EB030724BF62463946E6
:103BB0004EEB0E0E4FF0000B0018524149414BEBFB
:103BC0000B0BB2EB080C71EB03077BF1000B24BF6E
:103BD000624639464EEB0E0E4FF0000B0018524174
:103BE00049414BEB0B0BB2EB080C71EB03077BF17C
:103BF000000B24BF624639464EEB0E0E51EA020717
:103C000018BF46F0010616EB0E7655F1000254F18E
:103C1000000103D5BDE88901BDE80088BDE8890140
:103C2000BDE80048B619524141EB0101A3F101037F
:103C3000704780807F7E7D7C7B7A79787776767519
:103C40007473727171706F6E6E6D6C6C6B6A6A6991
:103C50006868676666656464636362616160605F2B
:103C60005F5E5E5D5D5C5C5B5B5A5A5959585857A4
:103C7000575656555555545453535252525151500C
:103C800050504F4F4F4E4E4D4D4D4C4C4C4B4B4B5F
:103C90004A4A4A49494948484847474747464646A5
:103CA00045454544444444434343434242424241E0
:103CB0004141000046EA0646A3F570534FEA164616
:103CC00046EA42564FEAD22242EA415210B54FEA42
:103CD000D121A3F1010300F017F820F0004000F11A
:103CE000010C00F0004701EB00501146BCF5006FDD
:103CF00040EA070000D210BD02484FF0000140EA40
:103D0000070010BD0000F07F002B26D4770021D0E3
:103D10001CB54FEA370703B44FF010004FF0100105
:103D20004FF000000FBCBDE810400BF1010BBBF1E0
:103D3000010F08BF5FEA170722BF12F1010211F15C
:103D400001014FF0004143F1000300F0004043EA5D
:103D500000007047F9D35708DAE746EA064613F140
:103D6000400F4FEA16461FDD13F1200FDFBF164349
:103D70000A46002120335B42C8D0C3F1200746EA3F
:103D8000064602FA07F74FEA164646EA0706C3F167
:103D9000200722FA03F201FA07F721FA03F14FF0A4
:103DA000000342EA0702B1E746EA020646EA06468F
:103DB0004FEA164646EA0106BCBF46EA0646360CFE
:103DC0004FF000034FF000024FF000019EE72DE995
:103DD000C048934630B491E8380007C831EA400C37
:103DE00048BF34EA430C03D5FFF7C7FDFFF78CFF4C
:103DF000F0BCBDE800882DE9C048934630B491E896
:103E0000380007C831EA400C48BF34EA430C03D5F8
:103E1000FFF7B3FDFFF74EFFF0BCBDE800882DE9CA
:103E2000C048934630B491E8380007C810F0804F7E
:103E300008BF13F0804F03D100F019F8FFF764FFBB
:103E4000F0BCBDE800882DE9C048934630B491E845
:103E5000380007C810F0804F08BF13F0804F03D11F
:103E600000F005F8FFF726FFF0BCBDE8008820F061
:103E70007F4780EA030023F07F4C07EB0C03A3F598
:103E80007C5300F00040A3F1FE0392F0000F00F01D
:103E9000B38095F0000F00F077802DE901494FEADB
:103EA00011404FEA144621EA004800FB06FC24EAD0
:103EB000064708FB06F607FB08F800FB07F718EBB8
:103EC00006484CEB164C4FEA124B18EB07484FEAEA
:103ED00015464CEB174022EA0B4E0BFB06FC25EA7D
:103EE00006470EFB06F607FB0EFE0BFB07F71EEB65
:103EF000064E4CEB164C4FF000061EEB074E4CEBFB
:103F0000174B18EB0B0840F1000018EB0E0B58EBA9
:103F1000000840F100008F1A4FF000013CBFC94378
:103F2000661B14BFB5EB040C00213CBFC943F61B54
:103F30004FEA17444EEA8E0E27EA04454FEA1C4723
:103F400004FB07622CEA074C05FB07F70CFB05F6A0
:103F500004FB0CFC16EB074642EB174216EB0C4633
:103F600042EB1C421BEB060658EB0202414146EABB
:103F70009E0601D5BDE80189B619524141EB010108
:103F8000A3F10103BDE801894FEA14454FEA114747
:103F900024EA054621EA074C05FB07F406FB07F770
:103FA0000CFB06F105FB0CFC11EB074144EB17443D
:103FB0004FEA124711EB0C4144EB1C4422EA074C38
:103FC00005FB07F206FB07F70CFB06F605FB0CFCEE
:103FD00016EB074642EB174216EB0C4642EB1C452C
:103FE0006A1854F1000148BF7047B619524141EBBD
:103FF0000101A3F10103704795F0000F37D04FEA9C
:1040000011424FEA144721EA024624EA074C02FB18
:1040100007F106FB07F70CFB06F402FB0CFC14EBA4
:10402000074441EB17414FEA154714EB0C4441EBB1
:104030001C4125EA074C02FB07F506FB07F70CFBC2
:1040400006F602FB0CFC16EB074645EB174516EB94
:104050000C4645EB1C42121951F1000148BF704754
:10406000B619524141EB0101A3F1010370474FEA38
:1040700014454FEA114724EA054621EA074C05FB9F
:1040800007F106FB07F70CFB06F24FF0000605FBF5
:104090000CFC12EB074241EB174112EB0C4251EBC7
:1040A0001C4148BF7047921841EB0101A3F1010385
:1040B00070472DE9F04784B0804689469246002734
:1040C0000025002600212D2000F0BCF9642010F00E
:1040D00029FB2B21312000F0B5F90A212C2000F01A
:1040E000B1F928212D2000F0ADF900212E2000F09B
:1040F000A9F900211E2000F0A5F900211F2000F0E1
:10410000A1F90021202000F09DF90C2010F00AFBFD
:10411000002401AA02A903A800F0F6F8BDF80C00DB
:10412000384407B2BDF80800284405B2BDF80400C1
:10413000304406B2601CC4B20A2CEAD346F267606F
:1041400078438114A1EBE07146F267606843821402
:10415000A2EBE07246F2676070438314A3EBE07356
:104160004842C11700EB9170801088F8000050425F
:10417000C11700EB9170801089F80000C3F58070C2
:10418000C11700EB917080108AF8000098F80010B9
:104190001E2000F057F999F800101F2000F052F986
:1041A0009AF80010202000F04DF904B0BDE8F08727
:1041B0002DE9F0410F4606461146002023B1012BA0
:1041C00024D0022B63D142E0084629F0D5FA0446F8
:1041D0000D463946384629F02BFD07463146304614
:1041E00029F026FD394629F0F3FA29F0C5FA20F026
:1041F00077FF22462B4628F057FD28F067FC29F070
:10420000BBFA0CF027FF28F061FC40E0084629F0DB
:104210000FFD04463946384629F00AFD214629F0AB
:10422000D7FA29F0A9FA20F05BFF04460D46304684
:1042300029F0A2FA22462B4628F036FD28F046FC4B
:1042400029F09AFA0CF006FF28F040FC1FE008461F
:1042500029F0EEFC04463146304629F0E9FC2146BF
:1042600029F0B6FA29F088FA20F03AFF04460D4604
:10427000384629F081FA22462B4628F015FD28F011
:1042800025FC29F079FA0CF0E5FE28F01FFC07491F
:1042900029F0CEFC29F070FA054A064B28F004FDFF
:1042A00028F096FE00B2BDE8F08100000000E14475
:1042B0001F85EB51B81E094010B501F063FB0020CB
:1042C00000F05DF8E52801D0012010BD2B21312040
:1042D00000F0B8F80A212C2000F0B4F828212D2095
:1042E00000F0B0F800212E2000F0ACF800211E20D4
:1042F00000F0A8F800211F2000F0A4F800212020E1
:1043000000F0A0F8002010BD2DE9F0478046894656
:104310009246002500260027002452464946404682
:1043200000F04AF80A2010F0FDF9B8F8000028441F
:1043300005B2B9F80000304406B2BAF800003844BB
:1043400007B2601CC4B20A2CE7D346F26760684328
:104350008114A1EBE070A8F8000046F2676070439A
:104360008114A1EBE070A9F8000046F26760784381
:104370008114A1EBE070AAF80000BDE8F08710B549
:10438000044601F09DFB3A2001F06AFB01F0D4FBEA
:10439000204601F065FB01F0CFFB01F091FB3B20D3
:1043A00001F05EFB01F0C8FB002001F023FB044696
:1043B00001F0A4FB204610BD2DE9F04182B0064675
:1043C0000F46904601F07CFB3A2001F049FB01F0DA
:1043D000B3FB322001F044FB01F0AEFB01F070FBB7
:1043E0003B2001F03DFB01F0A7FB00246D46052CAE
:1043F00022D0012001F0FEFA2855601CC4B2062C20
:10440000F5D301F07BFB9DF800009DF8011000EB57
:10441000012030809DF802009DF8031000EB012080
:1044200038809DF804009DF8051000EB0120A8F8E5
:10443000000002B0BDE8F081002001F0DBFA8DF849
:104440000500DAE770B505460C4601F039FB3A2065
:1044500001F006FB01F070FB284601F001FB01F0C2
:104460006BFB204601F0FCFA01F066FBBDE87040F2
:1044700001F044BB10B5FF2000F03BF855280AD0EE
:104480005521FF2000F080F8FF2000F032F8552879
:1044900003D0012010BD002010BD002010BD01F090
:1044A00071BA70B505460E461446002C0AD028464F
:1044B000691C8DB200F01DF806F8010B601E84B275
:1044C000002CF4D170BD2DE9F04102460D460020CC
:1044D0000024002D0BD957190602381B401E80B24C
:1044E00000F007F83044611CCCB2AC42F4D3BDE814
:1044F000F08110B5044601F0E3FA200AA02101EB97
:104500004000C0B201F0ACFA01F016FBE0B201F0DD
:10451000A7FA01F011FB01F0D3FAA12001F0A0FAF3
:1045200001F00AFB002001F065FA044601F0E6FA0A
:10453000204610BD70B506460D46501E84B2002AB6
:104540000BD02978304600F01FF8701C86B26D1C25
:104550002000A4F101018CB2F3D170BD2DE9F0412E
:1045600005460F4616460024002E0BD9E00027FA18
:1045700000F0C1B2281980B200F006F8601CC4B285
:10458000B442F3D3BDE8F08170B504460D4601F0A6
:1045900097FA200AA02202EB4000C0B201F060FAB4
:1045A00001F0CAFAE0B201F05BFA01F0C5FA284660
:1045B00001F056FA01F0C0FA01F0A0FABDE870402F
:1045C00042F2107010F0CCB83948816941F0040112
:1045D000816138490A6822F0F0020A60816941F479
:1045E00000718161C16841F40071C160C16821F44A
:1045F0000071C160416821F440414160416841F46B
:10460000004141602C48016821F4702121F07F4174
:10461000016001680160016821F480710160001D82
:10462000016821F002010160016821F4602101604C
:10463000016841F460210160016841F4801101606A
:10464000016821F400610160016841F4000101602A
:104650001A490A6822F470020A600A6800220A6095
:1046600017490A6822F038020A600A6842F03802E4
:104670000A60011D0A6822F4E0120A600A6842F426
:10468000E0120A60016841F001010160016841F037
:1046900008010160016811F0080FFBD1016841F0C9
:1046A00004010160016811F0040FFBD170470000A4
:1046B0000010024000080140042401402C24014065
:1046C000102401400D48816941F008018161816930
:1046D00041F0200181610A48016821F070410160C8
:1046E000016841F0405101600648016821F07041C5
:1046F0000160016841F040510160704700100240C4
:10470000000C014000140140044A00F00101116056
:104710000349C0F34000C1F89C0170479C812242CC
:10472000008021420848816941F008018161074801
:10473000016821F00F010160016841F0030101608F
:10474000034900200860704700100240040C01403B
:10475000A081214210B570B1012812D0022817D1D2
:104760001021012007F00CFFBDE810404FF48051EC
:10477000022007F0BDBE1021BDE81040012007F067
:10478000FFBEBDE810404FF48051022007F0B0BEDC
:1047900010BDC1B2000A40EA0120704710B50020E8
:1047A000904B914C5988002907D95A6812F800C0DB
:1047B00004F800C0401C8842F8D38C48626842600C
:1047C000A26882601F290FD00220FFF7C3FF0020DC
:1047D0002060607B1A22052107F01CFF0021BDE844
:1047E0001040012007F0F2BEE17B282901D02A29E0
:1047F00010D1207D627C94F813C040EA0260A27C54
:10480000120442EA0C2210439860E07DA27D40EA47
:104810000220D860764A206890427DD1754A607B3C
:104820001268904203D8A27B0AB1102A0DD9022047
:10483000FFF790FF607B2422052107F0EBFE0021AB
:10484000BDE81040012007F0C1BE252968D01ADC60
:1048500015297CD00DDC08297AD005DCF1B30329B9
:104860003FD004292DD177E00A2972D0122928D10E
:104870003BE01A390A2924D2DFE801F0433B237ACE
:104880003F232323234B8A297DD00EDC552967D073
:1048900006DC28294CD02A2950D02F2911D153E0E9
:1048A0005A2932D088290CD172E0A82968D004DCBA
:1048B0008F2969D09E2904D16EE0AA2974D0AF292E
:1048C0007AD00220FFF746FF607B2022052107F007
:1048D000A1FE0021BDE81040012000E024E007F027
:1048E00075BEBDE8104006F0F7BFBDE8104006F009
:1048F00001BFBDE8104006F0FBBFBDE8104006F068
:10490000F7BFBDE8104006F035BFBDE8104006F027
:104910002BBFBDE8104001E056E001E006F0A6BF65
:10492000BDE8104006F068BFBDE8104006F0E4BFE7
:10493000DA689968BDE8104006F022BFDA68996825
:10494000BDE8104007F012B8BDE8104002E00BE0EF
:1049500012E025E006F0ECBFBDE8104006F0B2BE64
:10496000BDE8104006F0E0BEBDE8104006F0DCBE39
:10497000BDE8104006F0D8BEBDE8104006F0D4BE39
:10498000BDE8104002E013E01AE00DE006F0CCBEF6
:10499000BDE8104006F0C8BEBDE8104006F0C4BE39
:1049A000BDE8104006F0C0BEBDE8104006F0BCBE39
:1049B000BDE8104006F0B8BEBDE8104006F0B4BE39
:1049C000BDE8104006F0B0BE0220FFF7C3FE607BDA
:1049D0002022052107F01EFE0021BDE81040012025
:1049E00007F0F4BD0815002020DF002040DF002084
:1049F00055534243701500202DE9F0471F4C2068A5
:104A00001F4D288010F4004F35D0DFF878901E4EEF
:104A10001E4FDFF87CA047F6FF78C4F80080288896
:104A200000F00F00307007EB8000016889B211F4CC
:104A3000004F0CD0016889B221F0700121F470415F
:104A400001603078401E59F8200080470EE011F0D8
:104A5000800F0BD0016889B221F0F00121F4E04110
:104A600001603078401E5AF8200080472068288076
:104A700010F4004FD1D1BDE8F0870000445C004045
:104A80006C1500205015002038140020005C0040F8
:104A9000341500202DE9F05FDFF86C82D8F80000B3
:104AA0009A4D288010F4004F3AD0DFF86492DFF876
:104AB00064B2994F994E47F6FF7AC8F800A028884B
:104AC00000F00F00387068B306EB800001688CB20C
:104AD00014F4004F0BD0016889B221F0700121F469
:104AE000704101603878401E5BF82000804714F068
:104AF000800F0FD0387806EB8000016889B221F072
:104B0000F00121F4E041016039788548491E50F8F0
:104B100021008047D8F80000288010F4004FCCD145
:104B2000BDE8F09F3068C0F301300003A9F8000031
:104B30003068C0F301100001A9F80200306880B2AB
:104B400020F0700020F4804080F400503060306825
:104B500080B220F4415020F4804080F0200030608A
:104B6000288810F0100F35D0306880B210F0800F18
:104B700061D0306880B220F0F00020F4E040306076
:104B800001F008F8306880B220F0700020F4804016
:104B9000B9F8001011F4805F01D080F4805011F456
:104BA000005F01D080F400503060306880B220F4A3
:104BB000415020F48040B9F8021011F0100F01D0DC
:104BC00080F0100011F0200F01D080F02000306044
:104BD000BDE8F09F306880B220F0F00020F4E040A3
:104BE000306000F0D7FF306880B220F0700020F411
:104BF0008040B9F8001011F4805F01D080F480503B
:104C000011F4005F01D080F400503060306880B251
:104C100020F4415020F48040B9F8021011F0100F38
:104C200001D080F0100011F0200F01D080F02000A2
:104C30003060BDE8F09F10F4006F30D0306880B273
:104C400020F0700020F47040306007F0F5FC306810
:104C500080B220F0700020F48040B9F8001011F408
:104C6000805F01D080F4805011F4005F01D080F4A7
:104C700000503060306880B220F4415020F4804011
:104C8000B9F8021011F0100F01D080F0100011F0EF
:104C9000200F01D080F020003060BDE8F09F10F4BC
:104CA000004F3FF437AF306880B220F0700020F43E
:104CB0007040306005F02EFB306880B220F070004C
:104CC00020F48040B9F8001011F4805F01D080F426
:104CD000805011F4005F01D080F4005030603068E3
:104CE00080B220F4415020F48040B9F8021011F055
:104CF000100F01D080F0100011F0200F01D080F0D3
:104D000020003060BDE8F09F445C00406C1500203E
:104D10004A1400205015002038140020005C004088
:104D200034150020084901EB8000016811F4804F20
:104D300008D0016889B221F0700121F4E04141F40A
:104D40008041016070470000005C0040084901EBB1
:104D50008000016811F0400F08D0016889B221F08D
:104D6000700121F4E04141F0400101607047000012
:104D7000005C0040054901EB8000016889B221F424
:104D8000B87121F4E041016070470000005C004010
:104D900070B500241548416821F4704141604168B4
:104DA00041F400414160124D04E0601CC4B2012096
:104DB0000FF0D6FCD5F82C0108B1C82CF5D3C82CBF
:104DC00001D3012070BD002404E0601CC4B20120A6
:104DD0000FF0C6FCD5F82C0108B9F02CF5D3F02C57
:104DE00001D3012070BD002070BD000000200140F3
:104DF0000000244270B500F0A3F800F085F8FFF73A
:104E0000C7FFCC2000F0AAF8BE2000F0A7F800F001
:104E10006BF8044600F068F8072805D9C043C0B213
:104E2000E143CCB2002500E001250002204400B29D
:104E300028F02BF90022054B28F08EF928F0C8F84D
:104E400000B2002D01D1404200B270BD0000E43F2D
:104E500010B50C48816941F4807181610A4841684C
:104E600021F470414160416841F440514160C168A2
:104E700041F40061C16000F047F8BDE81040FFF761
:104E800087BF0000001002400020014070B5144CA4
:104E9000606820F470406060606840F4405060607A
:104EA000104D002028604FF002000FF059FC012047
:104EB0002860606820F470406060606840F40040E2
:104EC00060600C200FF04CFC55F8800C08B10124F8
:104ED00000E0002432200FF043FC204670BD0000AB
:104EE00000200140AC01244270B500250124FFF7E9
:104EF000CDFFC00140EA5500C5B2601CC4B2082C09
:104F0000F5D9284670BD000010B50B48416821F462
:104F100070414160416841F440514160074C0020BC
:104F2000206040F2EE200FF01BFC01202060BDE865
:104F300010400F200FF014BC00200140AC012442AF
:104F400010B5FFF7E1FFFFF723FFCC2000F006F8D4
:104F5000BDE81040442000F001B800002DE9F04108
:104F600005461648416821F470414160416841F4AA
:104F7000405141600124124E01274FF0000805F016
:104F800001006D0850B1C6F8AC8102200FF0E8FBBB
:104F9000C6F8AC713C200FF0E3FB09E0C6F8AC8129
:104FA0003C200FF0DDFBC6F8AC7102200FF0D8FBFF
:104FB000601CC4B2082CE2D9BDE8F0810020014099
:104FC000000024422DE9F05FDFF89C90D9F8001032
:104FD00001F1100420880E7ADFF890804FF0300A3B
:104FE00008B9042E04D0A588A84216D8042615E0D6
:104FF0001F490878012804D007261020A8F80000CF
:105000002CE01C4A002012681B4B92B2921C43F801
:105010001200A8F800A0087020E00226854200D9FE
:105020000546A8B2A168074688478346002000F0DD
:105030004BFB01463A46584608F006FF3946002029
:1050400007F090FA2088401B208060882844608008
:10505000A8F800A009494FF440500880D9F8000092
:105060000672BDE8F09F00003C1400204C140020A4
:1050700034140020505C0040006000404A140020BE
:105080002DE9F041234E306800F110042088A1681A
:10509000B1B1A8B1A588854200D90546A8B2074696
:1050A000884780462088401B208060882844608094
:1050B000002000F0E9FA01463A46404605F050F972
:1050C0002088154F302538B1144928020880002166
:1050D000084607F047FA3D802088A188884204D31B
:1050E000316803200872BDE8F08120B131680520E5
:1050F0000872BDE8F0813168062008720849002076
:105100000968084A89B2891C42F811003D80BDE84F
:10511000F08100003C1400204C1400204A140020B0
:10512000505C0040006000402DE9F041634D28686C
:1051300042780024624E062A316801D092B118E00C
:10514000027812F07F0F68D18078012804D00228FD
:1051500004D0032804D060E0CC695EE00C6A5CE017
:105160004C6A5AE0438823B9C388022B01D10379E2
:1051700023B1082A37D00A2A3BD04EE0027812F039
:105180007F0F01D1838833B102F07F02012A04D05E
:10519000022A0CD041E04B4C3FE08A694079002163
:1051A0009047F8B92868807AE0B1464C35E04179FB
:1051B00001F00F0001F0700211F0800F424905D09C
:1051C00051F82010C1F30111090104E051F8201039
:1051D000C1F3013109033D4B1B7883421DD90AB944
:1051E00001B1384C19E0007810F07F0F15D1384C20
:1051F00013E0027802F07F02012A0ED1827A62B1B6
:10520000428852B9027942B9C288012A05D18A6915
:1052100040790021904700B92E4C4FF00908002733
:1052200034B12868478284610020A047002006E04E
:1052300031682868096940788847032809D02968B7
:105240000A8AA2F57F43FF3B08D181F80880BDE8B8
:10525000F081286880F80880BDE8F081022809D034
:1052600042B1087810F0800F21D0C888824206D958
:10527000088214E04FF008000872BDE8F0810ED2F9
:105280003068154B90F82C00824201D21F7006E066
:10529000B2FBF0FC00FB1C2008B90120187030683C
:1052A00090F82C008882BDE8F041FFF78BBE032008
:1052B00008720A4900030880BDE8F0813C14002010
:1052C000401400203DCA0008005C0040DC150020AE
:1052D000D1C9000815CA0008341400204A1400205F
:1052E0002DE9F04F82B0074688460024154603207A
:1052F000A0EB4206002D4EDBA8EB050081B207EBC8
:10530000040A01901FFA8AF000F0F0FEA8EB0400F6
:1053100081B207EB050900901FFA89F000F0E6FE64
:1053200008EB040B1FFA8BF11FFA89F000F0DEFE88
:1053300008EB05091FFA89F11FFA8AF000F0D6FE82
:105340001FFA89F1A7EB04091FFA89F000F0CEFEDD
:10535000A7EB050A1FFA8BF11FFA8AF000F0C6FED0
:10536000019881B21FFA89F000F0C0FE009881B266
:105370001FFA8AF000F0BAFE641C002E03DA06EB76
:105380008400861D05E0601B06EB800000F10A0624
:105390006D1EAC42B0DD02B0BDE8F08F03F0CCB8BA
:1053A00003F006B910B50A200FF0BCF907480068F1
:1053B00030B90749D1F8940130B10020C1F8940107
:1053C00004490420086010BD0120F7E708012342CA
:1053D000008021421404014010B50A200FF0A2F908
:1053E0000749D1F80C0128B9D1F8940130B1002057
:1053F000C1F8940103490820086010BD0120F7E7B7
:10540000000023421404014010B50A200FF08AF96D
:105410000C49D1F8100160B90B4AD2F8940160B17F
:105420000020C2F89401D1F8940140B10020C1F8E5
:10543000940106491020086010BD0120F1E7012009
:10544000F5E70000000023420080214214040140DF
:1054500010B502220821002000F038F8022317229C
:105460000021BDE81040084603F002B810B503F073
:10547000CFFEDFF848C0DCF8000010F4807F0CD0CD
:105480000F480178022908D203780E49002263B13F
:10549000C1F88C210178491C01704FF48070CCF860
:1054A0000000BDE8104003F0BFBE074B1A604FF08C
:1054B00001021A60C1F88C21ECE7000014040140DD
:1054C0004C100020008021429881224230B48B0889
:1054D0004FEA817C4FEA1C7C154CA56945F001051B
:1054E000A561144C04EB83039C680F2505FA0CF5A9
:1054F000AC439C609C6800FA0CF0204398600E4B13
:10550000D3F800C0012088404CEA0001196012F075
:10551000010F03D009490B6803430B6012F0020F1F
:1055200003D007490A681043086030BC7047000088
:105530000010024000000140000401400C04014042
:10554000080401403D48416941F48071416181692D
:1055500041F020018161816941F0400181618169EF
:1055600041F080018161816941F480718161344839
:10557000016800210160026842F0BB320260001F36
:10558000026802F0FF220260026842F0BB12026071
:105590002C4802680160026842F0BB320260001FC2
:1055A000026822F0FF0222F070420260026842F0BC
:1055B000BB0242F0304202602348026892B20260AD
:1055C000026842F43B0242F03B420260001F026864
:1055D00002F07F42026003681C4A134303601C48C8
:1055E000436823F470634360436843F4306343606B
:1055F000036803F07F43036003681A4302604FF0BF
:10560000204001614161C0F81411016941F48051E9
:105610000161016941F010010161416941F440718A
:10562000416141694161416941616FF07041C0F878
:105630001411016941F0010101617047001002403D
:105640000414014004180140041C0140BBBBBB0012
:1056500000200140002A08D04FF0D0435B5C00F8E6
:10566000013B491C521E002AF6D17047002A09D07E
:105670004FF0D04C03780CF80130491C401C521EEE
:10568000002AF5D1704700000549096889B201EB8D
:10569000C0000449001D51F8100080B2704700009E
:1056A000505C0040006000400549096889B201EB88
:1056B000C0000449801D51F81000C0F30900704774
:1056C000505C0040006000400449096889B201EB69
:1056D000C000034951F8100080B27047505C004090
:1056E000006000400A490A6822F01F020A600A6846
:1056F000104308600748016841F4800101600648D2
:10570000016811F0020FFBD00448006880B27047B6
:105710003424014008240140002401404C2401406D
:10572000844608469CF800309CF80110812B0BD36E
:10573000402909D3FF2907D0FF2B05D07F2910D29C
:10574000403901F0FF0C0FE00023B3EB420F07D20A
:10575000002100F8011B5B1CDBB2B3EB420FF8D356
:105760007047413901F0FF0CA3F18101C9B2C1EBCF
:10577000411303EB81110CEB410151434900074BED
:10578000102A05D0D3F809201144182206F036BD9E
:10579000D3F811201144202206F030BD5BD1002047
:1057A00008B10448704704490120096808820020B4
:1057B00070470000701500203C140020114800685C
:1057C00011490968114A1268002819D0104B9870C5
:1057D0004FEA102C83F804C04FEA104C83F806C03F
:1057E000000E18729972080A1873080C9873080E44
:1057F00018749A74100A1875100C9875100E187693
:1058000070470000E8F7FF1FECF7FF1FF0F7FF1FDE
:105810001815002070B5002500241020FFF762FF46
:10582000284485B201200EF07DFF601CC4B2142C08
:10583000F3D34CF6CD406843000D27F03DFC4FF00C
:1058400066320E4B27F088FC27F040F927F094FFD2
:105850000B4A0C4B27F0B4FD0B4A0C4B27F024FAF3
:1058600000220B4B27F064F927F030F9094928F0A2
:10587000DFF9BDE8704028F015B9000066664A3FC0
:10588000E17A14AE47E1F63F22FDF675E09C713FE8
:10589000000039400000204110B50024174801687D
:1058A00017A0FCF761FB1948016819A0FCF75CFB25
:1058B0001A4801681AA0FCF757FB1C4801681CA095
:1058C000FCF752FB1D49D1F8940198B10020C1F8B2
:1058D00094011B4A1B49601CC4B2D2F8940158B110
:1058E0000020C2F894010020401C8842FCD3052C03
:1058F000F1D310BD0120EAE70120F2E728ED00E036
:10590000434653523A2538580D0A00002CED00E06A
:10591000484653523A2538580D0A000030ED00E051
:10592000444653523A2538580D0A00003CED00E039
:10593000414653523A2538580D0A000000002342D0
:1059400000802142FFFF1F0070B50C4C0025256030
:105950000B48016821F470410160016841F4405135
:10596000016065604FF002000EF0FAFE0120206039
:1059700002200EF0F5FE256070BD0000A8812142D6
:10598000040C01400948816941F00801816108481F
:10599000016821F47F410160016841F44C510160CC
:1059A0000448016841F44061016070470010024002
:1059B000040C01400C0C014070B50C4C0025256016
:1059C0000B48016821F470410160016841F44051C5
:1059D00001604FF0010666604FF002000EF0C0FE5D
:1059E000266002200EF0BCFE256070BDA881214219
:1059F000040C01402DE9F047814600241648016857
:105A000021F470410160016841F40041016000250A
:105A1000124E4FF000080127C6F8A88102200EF0B0
:105A20009FFEC6F8A8716006040ED6F82C0108B1D6
:105A3000601CC4B201200EF093FE681CC5B2082D94
:105A4000EAD3B9F1000F04D0FFF77EFF2046BDE88E
:105A5000F087FFF7B1FFF9E7040C01400080214215
:105A60002DE9F04105461448016821F470410160B8
:105A7000016841F440510160104F4FF00008C7F831
:105A8000A88100240126E809C7F8AC016806050EC4
:105A900002200EF065FEC7F8A86102200EF060FE3D
:105AA000C7F8A88102200EF05BFE601CC4B2082C6F
:105AB000E9D3BDE8F0810000040C014000802142E0
:105AC00070B50C48016821F470410160016841F42F
:105AD00040510160084C0120606020604FF00400DC
